:1000000011241FE3A0E0BFE3E4EEF1E002C005909D
:100010000D92A230B107D9F72FE3A2E0BFE301C0F0
:100020001D92AA30B207E1F735D088EC90E05AD0A3
:100030008091008290910182019611F43AD005C01E
:100040006DD08823D9F30DC062D08091033F8823FF
:1000500011F068D006C088EC90E044D08111F4CF54
:10006000F8CF34D00C94000190E080E08091040837
:1000700087FF03C0809100085BD080910B0A80FF4E
:1000800008C08091023F8F5F8093023F81E08093A0
:100090000B0A0895E0E0F4E080E8818388E0838B38
:1000A000E0E0FAE08AE497E086A397A381E080830A
:1000B000089584E080932104E0E0F8E084E790E094
:1000C0008087918780EC86838081089584E0809387
:1000D0002204E0E0F4E0138A1092000A80E88683AC
:1000E000828308951F93CF93DF93EC011091023F19
:1000F000BDDF219730F481E0DF91CF911F9108950A
:10010000B5DF8091023F8117D9F3182FF2CF80E835
:10011000809307040895809302080895809108044D
:100120008870089588ED91E084BF90934100089510
:10013000CF93C82FF0DF8C2F04D08093033FCF9153
:100140000895E091043FF091053F309711F19F0130
:100150002F5F3F4F2093043F3093053F8083909162
:10016000003F89238093003FA9014F735527452BFA
:1001700071F48F3FA9F18FEF8093003F8DE993E0F9
:1001800084BF9093001081E02115304951F180E047
:1001900008954091063F5091073F6091083F70914C
:1001A000093F452F562F672F772767FD7A95409394
:1001B000063F5093073F6093083F7093093F809339
:1001C000093F4B3141F4952F96272BE19227891354
:1001D00002C0E52FF62FE093043FF093053FD7CF01
:0401E00081E008951D
:0201E400FF001A
:00000001FF
